{
  "contracts/DutchAuction.sol": {
    "DutchAuction": {
      "abi": [
        {
          "inputs": [
            {
              "internalType": "uint256",
              "name": "_startingPrice",
              "type": "uint256"
            },
            {
              "internalType": "uint256",
              "name": "_startDate",
              "type": "uint256"
            },
            {
              "internalType": "uint256",
              "name": "_endDate",
              "type": "uint256"
            },
            {
              "internalType": "address",
              "name": "_item",
              "type": "address"
            },
            {
              "internalType": "uint256",
              "name": "_itemId",
              "type": "uint256"
            }
          ],
          "stateMutability": "nonpayable",
          "type": "constructor"
        },
        {
          "inputs": [],
          "name": "buy",
          "outputs": [],
          "stateMutability": "payable",
          "type": "function"
        },
        {
          "inputs": [],
          "name": "endDate",
          "outputs": [
            {
              "internalType": "uint256",
              "name": "",
              "type": "uint256"
            }
          ],
          "stateMutability": "view",
          "type": "function"
        },
        {
          "inputs": [],
          "name": "finished",
          "outputs": [
            {
              "internalType": "bool",
              "name": "",
              "type": "bool"
            }
          ],
          "stateMutability": "view",
          "type": "function"
        },
        {
          "inputs": [],
          "name": "getPrice",
          "outputs": [
            {
              "internalType": "uint256",
              "name": "",
              "type": "uint256"
            }
          ],
          "stateMutability": "view",
          "type": "function"
        },
        {
          "inputs": [],
          "name": "item",
          "outputs": [
            {
              "internalType": "contract IERC721",
              "name": "",
              "type": "address"
            }
          ],
          "stateMutability": "view",
          "type": "function"
        },
        {
          "inputs": [],
          "name": "itemId",
          "outputs": [
            {
              "internalType": "uint256",
              "name": "",
              "type": "uint256"
            }
          ],
          "stateMutability": "view",
          "type": "function"
        },
        {
          "inputs": [],
          "name": "seller",
          "outputs": [
            {
              "internalType": "address payable",
              "name": "",
              "type": "address"
            }
          ],
          "stateMutability": "view",
          "type": "function"
        },
        {
          "inputs": [],
          "name": "startDate",
          "outputs": [
            {
              "internalType": "uint256",
              "name": "",
              "type": "uint256"
            }
          ],
          "stateMutability": "view",
          "type": "function"
        },
        {
          "inputs": [],
          "name": "startingPrice",
          "outputs": [
            {
              "internalType": "uint256",
              "name": "",
              "type": "uint256"
            }
          ],
          "stateMutability": "view",
          "type": "function"
        }
      ],
      "evm": {
        "bytecode": {
          "linkReferences": {},
          "object": "61014060405260008060006101000a81548160ff0219169083151502179055503480156200002c57600080fd5b5060405162001028380380620010288339818101604052810190620000529190620001d1565b83831162000097576040517f08c379a00000000000000000000000000000000000000000000000000000000081526004016200008e90620002e0565b60405180910390fd5b3373ffffffffffffffffffffffffffffffffffffffff1660c08173ffffffffffffffffffffffffffffffffffffffff16815250508460e081815250508361010081815250508261012081815250508173ffffffffffffffffffffffffffffffffffffffff1660808173ffffffffffffffffffffffffffffffffffffffff16815250508060a08181525050505050505062000302565b600080fd5b6000819050919050565b620001468162000131565b81146200015257600080fd5b50565b60008151905062000166816200013b565b92915050565b600073ffffffffffffffffffffffffffffffffffffffff82169050919050565b600062000199826200016c565b9050919050565b620001ab816200018c565b8114620001b757600080fd5b50565b600081519050620001cb81620001a0565b92915050565b600080600080600060a08688031215620001f057620001ef6200012c565b5b6000620002008882890162000155565b9550506020620002138882890162000155565b9450506040620002268882890162000155565b93505060606200023988828901620001ba565b92505060806200024c8882890162000155565b9150509295509295909350565b600082825260208201905092915050565b7f456e6420446174652073686f756c64206265206166746572205374617274204460008201527f6174650000000000000000000000000000000000000000000000000000000000602082015250565b6000620002c860238362000259565b9150620002d5826200026a565b604082019050919050565b60006020820190508181036000830152620002fb81620002b9565b9050919050565b60805160a05160c05160e0516101005161012051610c7b620003ad600039600081816102e90152818161044101526106b80152600081816102130152818161023901528181610292015281816102c801526103de015260008181610261015281816103180152818161035501526107000152600081816101ef0152818161052e015261062201526000818161055001526106dc0152600081816104f201526107240152610c7b6000f3fe6080604052600436106100865760003560e01c8063bef4876b11610059578063bef4876b14610116578063c24a0f8b14610141578063ca6158cb1461016c578063d6fbf20214610197578063f2a4a82e146101c257610086565b806308551a531461008b5780630b97bc86146100b657806398d5fdca146100e1578063a6f2ae3a1461010c575b600080fd5b34801561009757600080fd5b506100a06101ed565b6040516100ad91906107c9565b60405180910390f35b3480156100c257600080fd5b506100cb610211565b6040516100d891906107fd565b60405180910390f35b3480156100ed57600080fd5b506100f6610235565b60405161010391906107fd565b60405180910390f35b610114610388565b005b34801561012257600080fd5b5061012b6106a5565b6040516101389190610833565b60405180910390f35b34801561014d57600080fd5b506101566106b6565b60405161016391906107fd565b60405180910390f35b34801561017857600080fd5b506101816106da565b60405161018e91906107fd565b60405180910390f35b3480156101a357600080fd5b506101ac6106fe565b6040516101b991906107fd565b60405180910390f35b3480156101ce57600080fd5b506101d7610722565b6040516101e491906108ad565b60405180910390f35b7f000000000000000000000000000000000000000000000000000000000000000081565b7f000000000000000000000000000000000000000000000000000000000000000081565b60007f0000000000000000000000000000000000000000000000000000000000000000421015610287577f00000000000000000000000000000000000000000000000000000000000000009050610385565b6103826103536102c07f00000000000000000000000000000000000000000000000000000000000000004261074690919063ffffffff16565b6103456103167f00000000000000000000000000000000000000000000000000000000000000007f000000000000000000000000000000000000000000000000000000000000000061074690919063ffffffff16565b7f000000000000000000000000000000000000000000000000000000000000000061075c90919063ffffffff16565b61077290919063ffffffff16565b7f000000000000000000000000000000000000000000000000000000000000000061074690919063ffffffff16565b90505b90565b6000151560008054906101000a900460ff161515146103dc576040517f08c379a00000000000000000000000000000000000000000000000000000000081526004016103d390610925565b60405180910390fd5b7f000000000000000000000000000000000000000000000000000000000000000042101561043f576040517f08c379a000000000000000000000000000000000000000000000000000000000815260040161043690610991565b60405180910390fd5b7f000000000000000000000000000000000000000000000000000000000000000042106104a1576040517f08c379a0000000000000000000000000000000000000000000000000000000008152600401610498906109fd565b60405180910390fd5b60006104ab610235565b9050803410156104f0576040517f08c379a00000000000000000000000000000000000000000000000000000000081526004016104e790610a8f565b60405180910390fd5b7f000000000000000000000000000000000000000000000000000000000000000073ffffffffffffffffffffffffffffffffffffffff166323b872dd7f0000000000000000000000000000000000000000000000000000000000000000337f00000000000000000000000000000000000000000000000000000000000000006040518463ffffffff1660e01b815260040161058d93929190610af1565b600060405180830381600087803b1580156105a757600080fd5b505af11580156105bb573d6000803e3d6000fd5b50505050600081346105cd9190610b57565b90506000811115610620573373ffffffffffffffffffffffffffffffffffffffff166108fc829081150290604051600060405180830381858888f1935050505015801561061e573d6000803e3d6000fd5b505b7f000000000000000000000000000000000000000000000000000000000000000073ffffffffffffffffffffffffffffffffffffffff166108fc839081150290604051600060405180830381858888f19350505050158015610686573d6000803e3d6000fd5b5060016000806101000a81548160ff0219169083151502179055505050565b60008054906101000a900460ff1681565b7f000000000000000000000000000000000000000000000000000000000000000081565b7f000000000000000000000000000000000000000000000000000000000000000081565b7f000000000000000000000000000000000000000000000000000000000000000081565b7f000000000000000000000000000000000000000000000000000000000000000081565b600081836107549190610b57565b905092915050565b6000818361076a9190610bba565b905092915050565b600081836107809190610beb565b905092915050565b600073ffffffffffffffffffffffffffffffffffffffff82169050919050565b60006107b382610788565b9050919050565b6107c3816107a8565b82525050565b60006020820190506107de60008301846107ba565b92915050565b6000819050919050565b6107f7816107e4565b82525050565b600060208201905061081260008301846107ee565b92915050565b60008115159050919050565b61082d81610818565b82525050565b60006020820190506108486000830184610824565b92915050565b6000819050919050565b600061087361086e61086984610788565b61084e565b610788565b9050919050565b600061088582610858565b9050919050565b60006108978261087a565b9050919050565b6108a78161088c565b82525050565b60006020820190506108c2600083018461089e565b92915050565b600082825260208201905092915050565b7f41756374696f6e206861732066696e6973686564000000000000000000000000600082015250565b600061090f6014836108c8565b915061091a826108d9565b602082019050919050565b6000602082019050818103600083015261093e81610902565b9050919050565b7f41756374696f6e206861736e2774207374617274656420796574000000000000600082015250565b600061097b601a836108c8565b915061098682610945565b602082019050919050565b600060208201905081810360008301526109aa8161096e565b9050919050565b7f41756374696f6e20686173206578706972656400000000000000000000000000600082015250565b60006109e76013836108c8565b91506109f2826109b1565b602082019050919050565b60006020820190508181036000830152610a16816109da565b9050919050565b7f4554482073656e74206973206c6573736572207468616e20746865207072696360008201527f6500000000000000000000000000000000000000000000000000000000000000602082015250565b6000610a796021836108c8565b9150610a8482610a1d565b604082019050919050565b60006020820190508181036000830152610aa881610a6c565b9050919050565b6000610aba8261087a565b9050919050565b610aca81610aaf565b82525050565b6000610adb82610788565b9050919050565b610aeb81610ad0565b82525050565b6000606082019050610b066000830186610ac1565b610b136020830185610ae2565b610b2060408301846107ee565b949350505050565b7f4e487b7100000000000000000000000000000000000000000000000000000000600052601160045260246000fd5b6000610b62826107e4565b9150610b6d836107e4565b925082821015610b8057610b7f610b28565b5b828203905092915050565b7f4e487b7100000000000000000000000000000000000000000000000000000000600052601260045260246000fd5b6000610bc5826107e4565b9150610bd0836107e4565b925082610be057610bdf610b8b565b5b828204905092915050565b6000610bf6826107e4565b9150610c01836107e4565b9250817fffffffffffffffffffffffffffffffffffffffffffffffffffffffffffffffff0483118215151615610c3a57610c39610b28565b5b82820290509291505056fea2646970667358221220f0644fb3d2b8a2e4a934324cf4bf1165ab2384444dc3bc5fb495876b46c6288c64736f6c634300080e0033",
          "opcodes": "PUSH2 0x140 PUSH1 0x40 MSTORE PUSH1 0x0 DUP1 PUSH1 0x0 PUSH2 0x100 EXP DUP2 SLOAD DUP2 PUSH1 0xFF MUL NOT AND SWAP1 DUP4 ISZERO ISZERO MUL OR SWAP1 SSTORE POP CALLVALUE DUP1 ISZERO PUSH3 0x2C JUMPI PUSH1 0x0 DUP1 REVERT JUMPDEST POP PUSH1 0x40 MLOAD PUSH3 0x1028 CODESIZE SUB DUP1 PUSH3 0x1028 DUP4 CODECOPY DUP2 DUP2 ADD PUSH1 0x40 MSTORE DUP2 ADD SWAP1 PUSH3 0x52 SWAP2 SWAP1 PUSH3 0x1D1 JUMP JUMPDEST DUP4 DUP4 GT PUSH3 0x97 JUMPI PUSH1 0x40 MLOAD PUSH32 0x8C379A000000000000000000000000000000000000000000000000000000000 DUP2 MSTORE PUSH1 0x4 ADD PUSH3 0x8E SWAP1 PUSH3 0x2E0 JUMP JUMPDEST PUSH1 0x40 MLOAD DUP1 SWAP2 SUB SWAP1 REVERT JUMPDEST CALLER PUSH20 0xFFFFFFFFFFFFFFFFFFFFFFFFFFFFFFFFFFFFFFFF AND PUSH1 0xC0 DUP2 PUSH20 0xFFFFFFFFFFFFFFFFFFFFFFFFFFFFFFFFFFFFFFFF AND DUP2 MSTORE POP POP DUP5 PUSH1 0xE0 DUP2 DUP2 MSTORE POP POP DUP4 PUSH2 0x100 DUP2 DUP2 MSTORE POP POP DUP3 PUSH2 0x120 DUP2 DUP2 MSTORE POP POP DUP2 PUSH20 0xFFFFFFFFFFFFFFFFFFFFFFFFFFFFFFFFFFFFFFFF AND PUSH1 0x80 DUP2 PUSH20 0xFFFFFFFFFFFFFFFFFFFFFFFFFFFFFFFFFFFFFFFF AND DUP2 MSTORE POP POP DUP1 PUSH1 0xA0 DUP2 DUP2 MSTORE POP POP POP POP POP POP POP PUSH3 0x302 JUMP JUMPDEST PUSH1 0x0 DUP1 REVERT JUMPDEST PUSH1 0x0 DUP2 SWAP1 POP SWAP2 SWAP1 POP JUMP JUMPDEST PUSH3 0x146 DUP2 PUSH3 0x131 JUMP JUMPDEST DUP2 EQ PUSH3 0x152 JUMPI PUSH1 0x0 DUP1 REVERT JUMPDEST POP JUMP JUMPDEST PUSH1 0x0 DUP2 MLOAD SWAP1 POP PUSH3 0x166 DUP2 PUSH3 0x13B JUMP JUMPDEST SWAP3 SWAP2 POP POP JUMP JUMPDEST PUSH1 0x0 PUSH20 0xFFFFFFFFFFFFFFFFFFFFFFFFFFFFFFFFFFFFFFFF DUP3 AND SWAP1 POP SWAP2 SWAP1 POP JUMP JUMPDEST PUSH1 0x0 PUSH3 0x199 DUP3 PUSH3 0x16C JUMP JUMPDEST SWAP1 POP SWAP2 SWAP1 POP JUMP JUMPDEST PUSH3 0x1AB DUP2 PUSH3 0x18C JUMP JUMPDEST DUP2 EQ PUSH3 0x1B7 JUMPI PUSH1 0x0 DUP1 REVERT JUMPDEST POP JUMP JUMPDEST PUSH1 0x0 DUP2 MLOAD SWAP1 POP PUSH3 0x1CB DUP2 PUSH3 0x1A0 JUMP JUMPDEST SWAP3 SWAP2 POP POP JUMP JUMPDEST PUSH1 0x0 DUP1 PUSH1 0x0 DUP1 PUSH1 0x0 PUSH1 0xA0 DUP7 DUP9 SUB SLT ISZERO PUSH3 0x1F0 JUMPI PUSH3 0x1EF PUSH3 0x12C JUMP JUMPDEST JUMPDEST PUSH1 0x0 PUSH3 0x200 DUP9 DUP3 DUP10 ADD PUSH3 0x155 JUMP JUMPDEST SWAP6 POP POP PUSH1 0x20 PUSH3 0x213 DUP9 DUP3 DUP10 ADD PUSH3 0x155 JUMP JUMPDEST SWAP5 POP POP PUSH1 0x40 PUSH3 0x226 DUP9 DUP3 DUP10 ADD PUSH3 0x155 JUMP JUMPDEST SWAP4 POP POP PUSH1 0x60 PUSH3 0x239 DUP9 DUP3 DUP10 ADD PUSH3 0x1BA JUMP JUMPDEST SWAP3 POP POP PUSH1 0x80 PUSH3 0x24C DUP9 DUP3 DUP10 ADD PUSH3 0x155 JUMP JUMPDEST SWAP2 POP POP SWAP3 SWAP6 POP SWAP3 SWAP6 SWAP1 SWAP4 POP JUMP JUMPDEST PUSH1 0x0 DUP3 DUP3 MSTORE PUSH1 0x20 DUP3 ADD SWAP1 POP SWAP3 SWAP2 POP POP JUMP JUMPDEST PUSH32 0x456E6420446174652073686F756C642062652061667465722053746172742044 PUSH1 0x0 DUP3 ADD MSTORE PUSH32 0x6174650000000000000000000000000000000000000000000000000000000000 PUSH1 0x20 DUP3 ADD MSTORE POP JUMP JUMPDEST PUSH1 0x0 PUSH3 0x2C8 PUSH1 0x23 DUP4 PUSH3 0x259 JUMP JUMPDEST SWAP2 POP PUSH3 0x2D5 DUP3 PUSH3 0x26A JUMP JUMPDEST PUSH1 0x40 DUP3 ADD SWAP1 POP SWAP2 SWAP1 POP JUMP JUMPDEST PUSH1 0x0 PUSH1 0x20 DUP3 ADD SWAP1 POP DUP2 DUP2 SUB PUSH1 0x0 DUP4 ADD MSTORE PUSH3 0x2FB DUP2 PUSH3 0x2B9 JUMP JUMPDEST SWAP1 POP SWAP2 SWAP1 POP JUMP JUMPDEST PUSH1 0x80 MLOAD PUSH1 0xA0 MLOAD PUSH1 0xC0 MLOAD PUSH1 0xE0 MLOAD PUSH2 0x100 MLOAD PUSH2 0x120 MLOAD PUSH2 0xC7B PUSH3 0x3AD PUSH1 0x0 CODECOPY PUSH1 0x0 DUP2 DUP2 PUSH2 0x2E9 ADD MSTORE DUP2 DUP2 PUSH2 0x441 ADD MSTORE PUSH2 0x6B8 ADD MSTORE PUSH1 0x0 DUP2 DUP2 PUSH2 0x213 ADD MSTORE DUP2 DUP2 PUSH2 0x239 ADD MSTORE DUP2 DUP2 PUSH2 0x292 ADD MSTORE DUP2 DUP2 PUSH2 0x2C8 ADD MSTORE PUSH2 0x3DE ADD MSTORE PUSH1 0x0 DUP2 DUP2 PUSH2 0x261 ADD MSTORE DUP2 DUP2 PUSH2 0x318 ADD MSTORE DUP2 DUP2 PUSH2 0x355 ADD MSTORE PUSH2 0x700 ADD MSTORE PUSH1 0x0 DUP2 DUP2 PUSH2 0x1EF ADD MSTORE DUP2 DUP2 PUSH2 0x52E ADD MSTORE PUSH2 0x622 ADD MSTORE PUSH1 0x0 DUP2 DUP2 PUSH2 0x550 ADD MSTORE PUSH2 0x6DC ADD MSTORE PUSH1 0x0 DUP2 DUP2 PUSH2 0x4F2 ADD MSTORE PUSH2 0x724 ADD MSTORE PUSH2 0xC7B PUSH1 0x0 RETURN INVALID PUSH1 0x80 PUSH1 0x40 MSTORE PUSH1 0x4 CALLDATASIZE LT PUSH2 0x86 JUMPI PUSH1 0x0 CALLDATALOAD PUSH1 0xE0 SHR DUP1 PUSH4 0xBEF4876B GT PUSH2 0x59 JUMPI DUP1 PUSH4 0xBEF4876B EQ PUSH2 0x116 JUMPI DUP1 PUSH4 0xC24A0F8B EQ PUSH2 0x141 JUMPI DUP1 PUSH4 0xCA6158CB EQ PUSH2 0x16C JUMPI DUP1 PUSH4 0xD6FBF202 EQ PUSH2 0x197 JUMPI DUP1 PUSH4 0xF2A4A82E EQ PUSH2 0x1C2 JUMPI PUSH2 0x86 JUMP JUMPDEST DUP1 PUSH4 0x8551A53 EQ PUSH2 0x8B JUMPI DUP1 PUSH4 0xB97BC86 EQ PUSH2 0xB6 JUMPI DUP1 PUSH4 0x98D5FDCA EQ PUSH2 0xE1 JUMPI DUP1 PUSH4 0xA6F2AE3A EQ PUSH2 0x10C JUMPI JUMPDEST PUSH1 0x0 DUP1 REVERT JUMPDEST CALLVALUE DUP1 ISZERO PUSH2 0x97 JUMPI PUSH1 0x0 DUP1 REVERT JUMPDEST POP PUSH2 0xA0 PUSH2 0x1ED JUMP JUMPDEST PUSH1 0x40 MLOAD PUSH2 0xAD SWAP2 SWAP1 PUSH2 0x7C9 JUMP JUMPDEST PUSH1 0x40 MLOAD DUP1 SWAP2 SUB SWAP1 RETURN JUMPDEST CALLVALUE DUP1 ISZERO PUSH2 0xC2 JUMPI PUSH1 0x0 DUP1 REVERT JUMPDEST POP PUSH2 0xCB PUSH2 0x211 JUMP JUMPDEST PUSH1 0x40 MLOAD PUSH2 0xD8 SWAP2 SWAP1 PUSH2 0x7FD JUMP JUMPDEST PUSH1 0x40 MLOAD DUP1 SWAP2 SUB SWAP1 RETURN JUMPDEST CALLVALUE DUP1 ISZERO PUSH2 0xED JUMPI PUSH1 0x0 DUP1 REVERT JUMPDEST POP PUSH2 0xF6 PUSH2 0x235 JUMP JUMPDEST PUSH1 0x40 MLOAD PUSH2 0x103 SWAP2 SWAP1 PUSH2 0x7FD JUMP JUMPDEST PUSH1 0x40 MLOAD DUP1 SWAP2 SUB SWAP1 RETURN JUMPDEST PUSH2 0x114 PUSH2 0x388 JUMP JUMPDEST STOP JUMPDEST CALLVALUE DUP1 ISZERO PUSH2 0x122 JUMPI PUSH1 0x0 DUP1 REVERT JUMPDEST POP PUSH2 0x12B PUSH2 0x6A5 JUMP JUMPDEST PUSH1 0x40 MLOAD PUSH2 0x138 SWAP2 SWAP1 PUSH2 0x833 JUMP JUMPDEST PUSH1 0x40 MLOAD DUP1 SWAP2 SUB SWAP1 RETURN JUMPDEST CALLVALUE DUP1 ISZERO PUSH2 0x14D JUMPI PUSH1 0x0 DUP1 REVERT JUMPDEST POP PUSH2 0x156 PUSH2 0x6B6 JUMP JUMPDEST PUSH1 0x40 MLOAD PUSH2 0x163 SWAP2 SWAP1 PUSH2 0x7FD JUMP JUMPDEST PUSH1 0x40 MLOAD DUP1 SWAP2 SUB SWAP1 RETURN JUMPDEST CALLVALUE DUP1 ISZERO PUSH2 0x178 JUMPI PUSH1 0x0 DUP1 REVERT JUMPDEST POP PUSH2 0x181 PUSH2 0x6DA JUMP JUMPDEST PUSH1 0x40 MLOAD PUSH2 0x18E SWAP2 SWAP1 PUSH2 0x7FD JUMP JUMPDEST PUSH1 0x40 MLOAD DUP1 SWAP2 SUB SWAP1 RETURN JUMPDEST CALLVALUE DUP1 ISZERO PUSH2 0x1A3 JUMPI PUSH1 0x0 DUP1 REVERT JUMPDEST POP PUSH2 0x1AC PUSH2 0x6FE JUMP JUMPDEST PUSH1 0x40 MLOAD PUSH2 0x1B9 SWAP2 SWAP1 PUSH2 0x7FD JUMP JUMPDEST PUSH1 0x40 MLOAD DUP1 SWAP2 SUB SWAP1 RETURN JUMPDEST CALLVALUE DUP1 ISZERO PUSH2 0x1CE JUMPI PUSH1 0x0 DUP1 REVERT JUMPDEST POP PUSH2 0x1D7 PUSH2 0x722 JUMP JUMPDEST PUSH1 0x40 MLOAD PUSH2 0x1E4 SWAP2 SWAP1 PUSH2 0x8AD JUMP JUMPDEST PUSH1 0x40 MLOAD DUP1 SWAP2 SUB SWAP1 RETURN JUMPDEST PUSH32 0x0 DUP2 JUMP JUMPDEST PUSH32 0x0 DUP2 JUMP JUMPDEST PUSH1 0x0 PUSH32 0x0 TIMESTAMP LT ISZERO PUSH2 0x287 JUMPI PUSH32 0x0 SWAP1 POP PUSH2 0x385 JUMP JUMPDEST PUSH2 0x382 PUSH2 0x353 PUSH2 0x2C0 PUSH32 0x0 TIMESTAMP PUSH2 0x746 SWAP1 SWAP2 SWAP1 PUSH4 0xFFFFFFFF AND JUMP JUMPDEST PUSH2 0x345 PUSH2 0x316 PUSH32 0x0 PUSH32 0x0 PUSH2 0x746 SWAP1 SWAP2 SWAP1 PUSH4 0xFFFFFFFF AND JUMP JUMPDEST PUSH32 0x0 PUSH2 0x75C SWAP1 SWAP2 SWAP1 PUSH4 0xFFFFFFFF AND JUMP JUMPDEST PUSH2 0x772 SWAP1 SWAP2 SWAP1 PUSH4 0xFFFFFFFF AND JUMP JUMPDEST PUSH32 0x0 PUSH2 0x746 SWAP1 SWAP2 SWAP1 PUSH4 0xFFFFFFFF AND JUMP JUMPDEST SWAP1 POP JUMPDEST SWAP1 JUMP JUMPDEST PUSH1 0x0 ISZERO ISZERO PUSH1 0x0 DUP1 SLOAD SWAP1 PUSH2 0x100 EXP SWAP1 DIV PUSH1 0xFF AND ISZERO ISZERO EQ PUSH2 0x3DC JUMPI PUSH1 0x40 MLOAD PUSH32 0x8C379A000000000000000000000000000000000000000000000000000000000 DUP2 MSTORE PUSH1 0x4 ADD PUSH2 0x3D3 SWAP1 PUSH2 0x925 JUMP JUMPDEST PUSH1 0x40 MLOAD DUP1 SWAP2 SUB SWAP1 REVERT JUMPDEST PUSH32 0x0 TIMESTAMP LT ISZERO PUSH2 0x43F JUMPI PUSH1 0x40 MLOAD PUSH32 0x8C379A000000000000000000000000000000000000000000000000000000000 DUP2 MSTORE PUSH1 0x4 ADD PUSH2 0x436 SWAP1 PUSH2 0x991 JUMP JUMPDEST PUSH1 0x40 MLOAD DUP1 SWAP2 SUB SWAP1 REVERT JUMPDEST PUSH32 0x0 TIMESTAMP LT PUSH2 0x4A1 JUMPI PUSH1 0x40 MLOAD PUSH32 0x8C379A000000000000000000000000000000000000000000000000000000000 DUP2 MSTORE PUSH1 0x4 ADD PUSH2 0x498 SWAP1 PUSH2 0x9FD JUMP JUMPDEST PUSH1 0x40 MLOAD DUP1 SWAP2 SUB SWAP1 REVERT JUMPDEST PUSH1 0x0 PUSH2 0x4AB PUSH2 0x235 JUMP JUMPDEST SWAP1 POP DUP1 CALLVALUE LT ISZERO PUSH2 0x4F0 JUMPI PUSH1 0x40 MLOAD PUSH32 0x8C379A000000000000000000000000000000000000000000000000000000000 DUP2 MSTORE PUSH1 0x4 ADD PUSH2 0x4E7 SWAP1 PUSH2 0xA8F JUMP JUMPDEST PUSH1 0x40 MLOAD DUP1 SWAP2 SUB SWAP1 REVERT JUMPDEST PUSH32 0x0 PUSH20 0xFFFFFFFFFFFFFFFFFFFFFFFFFFFFFFFFFFFFFFFF AND PUSH4 0x23B872DD PUSH32 0x0 CALLER PUSH32 0x0 PUSH1 0x40 MLOAD DUP5 PUSH4 0xFFFFFFFF AND PUSH1 0xE0 SHL DUP2 MSTORE PUSH1 0x4 ADD PUSH2 0x58D SWAP4 SWAP3 SWAP2 SWAP1 PUSH2 0xAF1 JUMP JUMPDEST PUSH1 0x0 PUSH1 0x40 MLOAD DUP1 DUP4 SUB DUP2 PUSH1 0x0 DUP8 DUP1 EXTCODESIZE ISZERO DUP1 ISZERO PUSH2 0x5A7 JUMPI PUSH1 0x0 DUP1 REVERT JUMPDEST POP GAS CALL ISZERO DUP1 ISZERO PUSH2 0x5BB JUMPI RETURNDATASIZE PUSH1 0x0 DUP1 RETURNDATACOPY RETURNDATASIZE PUSH1 0x0 REVERT JUMPDEST POP POP POP POP PUSH1 0x0 DUP2 CALLVALUE PUSH2 0x5CD SWAP2 SWAP1 PUSH2 0xB57 JUMP JUMPDEST SWAP1 POP PUSH1 0x0 DUP2 GT ISZERO PUSH2 0x620 JUMPI CALLER PUSH20 0xFFFFFFFFFFFFFFFFFFFFFFFFFFFFFFFFFFFFFFFF AND PUSH2 0x8FC DUP3 SWAP1 DUP2 ISZERO MUL SWAP1 PUSH1 0x40 MLOAD PUSH1 0x0 PUSH1 0x40 MLOAD DUP1 DUP4 SUB DUP2 DUP6 DUP9 DUP9 CALL SWAP4 POP POP POP POP ISZERO DUP1 ISZERO PUSH2 0x61E JUMPI RETURNDATASIZE PUSH1 0x0 DUP1 RETURNDATACOPY RETURNDATASIZE PUSH1 0x0 REVERT JUMPDEST POP JUMPDEST PUSH32 0x0 PUSH20 0xFFFFFFFFFFFFFFFFFFFFFFFFFFFFFFFFFFFFFFFF AND PUSH2 0x8FC DUP4 SWAP1 DUP2 ISZERO MUL SWAP1 PUSH1 0x40 MLOAD PUSH1 0x0 PUSH1 0x40 MLOAD DUP1 DUP4 SUB DUP2 DUP6 DUP9 DUP9 CALL SWAP4 POP POP POP POP ISZERO DUP1 ISZERO PUSH2 0x686 JUMPI RETURNDATASIZE PUSH1 0x0 DUP1 RETURNDATACOPY RETURNDATASIZE PUSH1 0x0 REVERT JUMPDEST POP PUSH1 0x1 PUSH1 0x0 DUP1 PUSH2 0x100 EXP DUP2 SLOAD DUP2 PUSH1 0xFF MUL NOT AND SWAP1 DUP4 ISZERO ISZERO MUL OR SWAP1 SSTORE POP POP POP JUMP JUMPDEST PUSH1 0x0 DUP1 SLOAD SWAP1 PUSH2 0x100 EXP SWAP1 DIV PUSH1 0xFF AND DUP2 JUMP JUMPDEST PUSH32 0x0 DUP2 JUMP JUMPDEST PUSH32 0x0 DUP2 JUMP JUMPDEST PUSH32 0x0 DUP2 JUMP JUMPDEST PUSH32 0x0 DUP2 JUMP JUMPDEST PUSH1 0x0 DUP2 DUP4 PUSH2 0x754 SWAP2 SWAP1 PUSH2 0xB57 JUMP JUMPDEST SWAP1 POP SWAP3 SWAP2 POP POP JUMP JUMPDEST PUSH1 0x0 DUP2 DUP4 PUSH2 0x76A SWAP2 SWAP1 PUSH2 0xBBA JUMP JUMPDEST SWAP1 POP SWAP3 SWAP2 POP POP JUMP JUMPDEST PUSH1 0x0 DUP2 DUP4 PUSH2 0x780 SWAP2 SWAP1 PUSH2 0xBEB JUMP JUMPDEST SWAP1 POP SWAP3 SWAP2 POP POP JUMP JUMPDEST PUSH1 0x0 PUSH20 0xFFFFFFFFFFFFFFFFFFFFFFFFFFFFFFFFFFFFFFFF DUP3 AND SWAP1 POP SWAP2 SWAP1 POP JUMP JUMPDEST PUSH1 0x0 PUSH2 0x7B3 DUP3 PUSH2 0x788 JUMP JUMPDEST SWAP1 POP SWAP2 SWAP1 POP JUMP JUMPDEST PUSH2 0x7C3 DUP2 PUSH2 0x7A8 JUMP JUMPDEST DUP3 MSTORE POP POP JUMP JUMPDEST PUSH1 0x0 PUSH1 0x20 DUP3 ADD SWAP1 POP PUSH2 0x7DE PUSH1 0x0 DUP4 ADD DUP5 PUSH2 0x7BA JUMP JUMPDEST SWAP3 SWAP2 POP POP JUMP JUMPDEST PUSH1 0x0 DUP2 SWAP1 POP SWAP2 SWAP1 POP JUMP JUMPDEST PUSH2 0x7F7 DUP2 PUSH2 0x7E4 JUMP JUMPDEST DUP3 MSTORE POP POP JUMP JUMPDEST PUSH1 0x0 PUSH1 0x20 DUP3 ADD SWAP1 POP PUSH2 0x812 PUSH1 0x0 DUP4 ADD DUP5 PUSH2 0x7EE JUMP JUMPDEST SWAP3 SWAP2 POP POP JUMP JUMPDEST PUSH1 0x0 DUP2 ISZERO ISZERO SWAP1 POP SWAP2 SWAP1 POP JUMP JUMPDEST PUSH2 0x82D DUP2 PUSH2 0x818 JUMP JUMPDEST DUP3 MSTORE POP POP JUMP JUMPDEST PUSH1 0x0 PUSH1 0x20 DUP3 ADD SWAP1 POP PUSH2 0x848 PUSH1 0x0 DUP4 ADD DUP5 PUSH2 0x824 JUMP JUMPDEST SWAP3 SWAP2 POP POP JUMP JUMPDEST PUSH1 0x0 DUP2 SWAP1 POP SWAP2 SWAP1 POP JUMP JUMPDEST PUSH1 0x0 PUSH2 0x873 PUSH2 0x86E PUSH2 0x869 DUP5 PUSH2 0x788 JUMP JUMPDEST PUSH2 0x84E JUMP JUMPDEST PUSH2 0x788 JUMP JUMPDEST SWAP1 POP SWAP2 SWAP1 POP JUMP JUMPDEST PUSH1 0x0 PUSH2 0x885 DUP3 PUSH2 0x858 JUMP JUMPDEST SWAP1 POP SWAP2 SWAP1 POP JUMP JUMPDEST PUSH1 0x0 PUSH2 0x897 DUP3 PUSH2 0x87A JUMP JUMPDEST SWAP1 POP SWAP2 SWAP1 POP JUMP JUMPDEST PUSH2 0x8A7 DUP2 PUSH2 0x88C JUMP JUMPDEST DUP3 MSTORE POP POP JUMP JUMPDEST PUSH1 0x0 PUSH1 0x20 DUP3 ADD SWAP1 POP PUSH2 0x8C2 PUSH1 0x0 DUP4 ADD DUP5 PUSH2 0x89E JUMP JUMPDEST SWAP3 SWAP2 POP POP JUMP JUMPDEST PUSH1 0x0 DUP3 DUP3 MSTORE PUSH1 0x20 DUP3 ADD SWAP1 POP SWAP3 SWAP2 POP POP JUMP JUMPDEST PUSH32 0x41756374696F6E206861732066696E6973686564000000000000000000000000 PUSH1 0x0 DUP3 ADD MSTORE POP JUMP JUMPDEST PUSH1 0x0 PUSH2 0x90F PUSH1 0x14 DUP4 PUSH2 0x8C8 JUMP JUMPDEST SWAP2 POP PUSH2 0x91A DUP3 PUSH2 0x8D9 JUMP JUMPDEST PUSH1 0x20 DUP3 ADD SWAP1 POP SWAP2 SWAP1 POP JUMP JUMPDEST PUSH1 0x0 PUSH1 0x20 DUP3 ADD SWAP1 POP DUP2 DUP2 SUB PUSH1 0x0 DUP4 ADD MSTORE PUSH2 0x93E DUP2 PUSH2 0x902 JUMP JUMPDEST SWAP1 POP SWAP2 SWAP1 POP JUMP JUMPDEST PUSH32 0x41756374696F6E206861736E2774207374617274656420796574000000000000 PUSH1 0x0 DUP3 ADD MSTORE POP JUMP JUMPDEST PUSH1 0x0 PUSH2 0x97B PUSH1 0x1A DUP4 PUSH2 0x8C8 JUMP JUMPDEST SWAP2 POP PUSH2 0x986 DUP3 PUSH2 0x945 JUMP JUMPDEST PUSH1 0x20 DUP3 ADD SWAP1 POP SWAP2 SWAP1 POP JUMP JUMPDEST PUSH1 0x0 PUSH1 0x20 DUP3 ADD SWAP1 POP DUP2 DUP2 SUB PUSH1 0x0 DUP4 ADD MSTORE PUSH2 0x9AA DUP2 PUSH2 0x96E JUMP JUMPDEST SWAP1 POP SWAP2 SWAP1 POP JUMP JUMPDEST PUSH32 0x41756374696F6E20686173206578706972656400000000000000000000000000 PUSH1 0x0 DUP3 ADD MSTORE POP JUMP JUMPDEST PUSH1 0x0 PUSH2 0x9E7 PUSH1 0x13 DUP4 PUSH2 0x8C8 JUMP JUMPDEST SWAP2 POP PUSH2 0x9F2 DUP3 PUSH2 0x9B1 JUMP JUMPDEST PUSH1 0x20 DUP3 ADD SWAP1 POP SWAP2 SWAP1 POP JUMP JUMPDEST PUSH1 0x0 PUSH1 0x20 DUP3 ADD SWAP1 POP DUP2 DUP2 SUB PUSH1 0x0 DUP4 ADD MSTORE PUSH2 0xA16 DUP2 PUSH2 0x9DA JUMP JUMPDEST SWAP1 POP SWAP2 SWAP1 POP JUMP JUMPDEST PUSH32 0x4554482073656E74206973206C6573736572207468616E207468652070726963 PUSH1 0x0 DUP3 ADD MSTORE PUSH32 0x6500000000000000000000000000000000000000000000000000000000000000 PUSH1 0x20 DUP3 ADD MSTORE POP JUMP JUMPDEST PUSH1 0x0 PUSH2 0xA79 PUSH1 0x21 DUP4 PUSH2 0x8C8 JUMP JUMPDEST SWAP2 POP PUSH2 0xA84 DUP3 PUSH2 0xA1D JUMP JUMPDEST PUSH1 0x40 DUP3 ADD SWAP1 POP SWAP2 SWAP1 POP JUMP JUMPDEST PUSH1 0x0 PUSH1 0x20 DUP3 ADD SWAP1 POP DUP2 DUP2 SUB PUSH1 0x0 DUP4 ADD MSTORE PUSH2 0xAA8 DUP2 PUSH2 0xA6C JUMP JUMPDEST SWAP1 POP SWAP2 SWAP1 POP JUMP JUMPDEST PUSH1 0x0 PUSH2 0xABA DUP3 PUSH2 0x87A JUMP JUMPDEST SWAP1 POP SWAP2 SWAP1 POP JUMP JUMPDEST PUSH2 0xACA DUP2 PUSH2 0xAAF JUMP JUMPDEST DUP3 MSTORE POP POP JUMP JUMPDEST PUSH1 0x0 PUSH2 0xADB DUP3 PUSH2 0x788 JUMP JUMPDEST SWAP1 POP SWAP2 SWAP1 POP JUMP JUMPDEST PUSH2 0xAEB DUP2 PUSH2 0xAD0 JUMP JUMPDEST DUP3 MSTORE POP POP JUMP JUMPDEST PUSH1 0x0 PUSH1 0x60 DUP3 ADD SWAP1 POP PUSH2 0xB06 PUSH1 0x0 DUP4 ADD DUP7 PUSH2 0xAC1 JUMP JUMPDEST PUSH2 0xB13 PUSH1 0x20 DUP4 ADD DUP6 PUSH2 0xAE2 JUMP JUMPDEST PUSH2 0xB20 PUSH1 0x40 DUP4 ADD DUP5 PUSH2 0x7EE JUMP JUMPDEST SWAP5 SWAP4 POP POP POP POP JUMP JUMPDEST PUSH32 0x4E487B7100000000000000000000000000000000000000000000000000000000 PUSH1 0x0 MSTORE PUSH1 0x11 PUSH1 0x4 MSTORE PUSH1 0x24 PUSH1 0x0 REVERT JUMPDEST PUSH1 0x0 PUSH2 0xB62 DUP3 PUSH2 0x7E4 JUMP JUMPDEST SWAP2 POP PUSH2 0xB6D DUP4 PUSH2 0x7E4 JUMP JUMPDEST SWAP3 POP DUP3 DUP3 LT ISZERO PUSH2 0xB80 JUMPI PUSH2 0xB7F PUSH2 0xB28 JUMP JUMPDEST JUMPDEST DUP3 DUP3 SUB SWAP1 POP SWAP3 SWAP2 POP POP JUMP JUMPDEST PUSH32 0x4E487B7100000000000000000000000000000000000000000000000000000000 PUSH1 0x0 MSTORE PUSH1 0x12 PUSH1 0x4 MSTORE PUSH1 0x24 PUSH1 0x0 REVERT JUMPDEST PUSH1 0x0 PUSH2 0xBC5 DUP3 PUSH2 0x7E4 JUMP JUMPDEST SWAP2 POP PUSH2 0xBD0 DUP4 PUSH2 0x7E4 JUMP JUMPDEST SWAP3 POP DUP3 PUSH2 0xBE0 JUMPI PUSH2 0xBDF PUSH2 0xB8B JUMP JUMPDEST JUMPDEST DUP3 DUP3 DIV SWAP1 POP SWAP3 SWAP2 POP POP JUMP JUMPDEST PUSH1 0x0 PUSH2 0xBF6 DUP3 PUSH2 0x7E4 JUMP JUMPDEST SWAP2 POP PUSH2 0xC01 DUP4 PUSH2 0x7E4 JUMP JUMPDEST SWAP3 POP DUP2 PUSH32 0xFFFFFFFFFFFFFFFFFFFFFFFFFFFFFFFFFFFFFFFFFFFFFFFFFFFFFFFFFFFFFFFF DIV DUP4 GT DUP3 ISZERO ISZERO AND ISZERO PUSH2 0xC3A JUMPI PUSH2 0xC39 PUSH2 0xB28 JUMP JUMPDEST JUMPDEST DUP3 DUP3 MUL SWAP1 POP SWAP3 SWAP2 POP POP JUMP INVALID LOG2 PUSH5 0x6970667358 0x22 SLT KECCAK256 CREATE PUSH5 0x4FB3D2B8A2 0xE4 0xA9 CALLVALUE ORIGIN 0x4C DELEGATECALL 0xBF GT PUSH6 0xAB2384444DC3 0xBC 0x5F 0xB4 SWAP6 DUP8 PUSH12 0x46C6288C64736F6C63430008 0xE STOP CALLER "
        },
        "methodIdentifiers": {
          "buy()": "a6f2ae3a",
          "endDate()": "c24a0f8b",
          "finished()": "bef4876b",
          "getPrice()": "98d5fdca",
          "item()": "f2a4a82e",
          "itemId()": "ca6158cb",
          "seller()": "08551a53",
          "startDate()": "0b97bc86",
          "startingPrice()": "d6fbf202"
        }
      }
    }
  }
}