{
  "_format": "hh-sol-artifact-1",
  "contractName": "DutchAuction",
  "sourceName": "contracts/DutchAuction.sol",
  "abi": [
    {
      "inputs": [
        {
          "internalType": "uint256",
          "name": "_startingPrice",
          "type": "uint256"
        },
        {
          "internalType": "uint256",
          "name": "_startDate",
          "type": "uint256"
        },
        {
          "internalType": "uint256",
          "name": "_endDate",
          "type": "uint256"
        },
        {
          "internalType": "address",
          "name": "_item",
          "type": "address"
        },
        {
          "internalType": "uint256",
          "name": "_itemId",
          "type": "uint256"
        }
      ],
      "stateMutability": "nonpayable",
      "type": "constructor"
    },
    {
      "inputs": [],
      "name": "buy",
      "outputs": [],
      "stateMutability": "payable",
      "type": "function"
    },
    {
      "inputs": [],
      "name": "endDate",
      "outputs": [
        {
          "internalType": "uint256",
          "name": "",
          "type": "uint256"
        }
      ],
      "stateMutability": "view",
      "type": "function"
    },
    {
      "inputs": [],
      "name": "finished",
      "outputs": [
        {
          "internalType": "bool",
          "name": "",
          "type": "bool"
        }
      ],
      "stateMutability": "view",
      "type": "function"
    },
    {
      "inputs": [],
      "name": "getPrice",
      "outputs": [
        {
          "internalType": "uint256",
          "name": "",
          "type": "uint256"
        }
      ],
      "stateMutability": "view",
      "type": "function"
    },
    {
      "inputs": [],
      "name": "item",
      "outputs": [
        {
          "internalType": "contract IERC721",
          "name": "",
          "type": "address"
        }
      ],
      "stateMutability": "view",
      "type": "function"
    },
    {
      "inputs": [],
      "name": "itemId",
      "outputs": [
        {
          "internalType": "uint256",
          "name": "",
          "type": "uint256"
        }
      ],
      "stateMutability": "view",
      "type": "function"
    },
    {
      "inputs": [],
      "name": "seller",
      "outputs": [
        {
          "internalType": "address payable",
          "name": "",
          "type": "address"
        }
      ],
      "stateMutability": "view",
      "type": "function"
    },
    {
      "inputs": [],
      "name": "startDate",
      "outputs": [
        {
          "internalType": "uint256",
          "name": "",
          "type": "uint256"
        }
      ],
      "stateMutability": "view",
      "type": "function"
    },
    {
      "inputs": [],
      "name": "startingPrice",
      "outputs": [
        {
          "internalType": "uint256",
          "name": "",
          "type": "uint256"
        }
      ],
      "stateMutability": "view",
      "type": "function"
    }
  ],
  "bytecode": "0x61014060405260008060006101000a81548160ff0219169083151502179055503480156200002c57600080fd5b5060405162001028380380620010288339818101604052810190620000529190620001d1565b83831162000097576040517f08c379a00000000000000000000000000000000000000000000000000000000081526004016200008e90620002e0565b60405180910390fd5b3373ffffffffffffffffffffffffffffffffffffffff1660c08173ffffffffffffffffffffffffffffffffffffffff16815250508460e081815250508361010081815250508261012081815250508173ffffffffffffffffffffffffffffffffffffffff1660808173ffffffffffffffffffffffffffffffffffffffff16815250508060a08181525050505050505062000302565b600080fd5b6000819050919050565b620001468162000131565b81146200015257600080fd5b50565b60008151905062000166816200013b565b92915050565b600073ffffffffffffffffffffffffffffffffffffffff82169050919050565b600062000199826200016c565b9050919050565b620001ab816200018c565b8114620001b757600080fd5b50565b600081519050620001cb81620001a0565b92915050565b600080600080600060a08688031215620001f057620001ef6200012c565b5b6000620002008882890162000155565b9550506020620002138882890162000155565b9450506040620002268882890162000155565b93505060606200023988828901620001ba565b92505060806200024c8882890162000155565b9150509295509295909350565b600082825260208201905092915050565b7f456e6420446174652073686f756c64206265206166746572205374617274204460008201527f6174650000000000000000000000000000000000000000000000000000000000602082015250565b6000620002c860238362000259565b9150620002d5826200026a565b604082019050919050565b60006020820190508181036000830152620002fb81620002b9565b9050919050565b60805160a05160c05160e0516101005161012051610c7b620003ad600039600081816102e90152818161044101526106b80152600081816102130152818161023901528181610292015281816102c801526103de015260008181610261015281816103180152818161035501526107000152600081816101ef0152818161052e015261062201526000818161055001526106dc0152600081816104f201526107240152610c7b6000f3fe6080604052600436106100865760003560e01c8063bef4876b11610059578063bef4876b14610116578063c24a0f8b14610141578063ca6158cb1461016c578063d6fbf20214610197578063f2a4a82e146101c257610086565b806308551a531461008b5780630b97bc86146100b657806398d5fdca146100e1578063a6f2ae3a1461010c575b600080fd5b34801561009757600080fd5b506100a06101ed565b6040516100ad91906107c9565b60405180910390f35b3480156100c257600080fd5b506100cb610211565b6040516100d891906107fd565b60405180910390f35b3480156100ed57600080fd5b506100f6610235565b60405161010391906107fd565b60405180910390f35b610114610388565b005b34801561012257600080fd5b5061012b6106a5565b6040516101389190610833565b60405180910390f35b34801561014d57600080fd5b506101566106b6565b60405161016391906107fd565b60405180910390f35b34801561017857600080fd5b506101816106da565b60405161018e91906107fd565b60405180910390f35b3480156101a357600080fd5b506101ac6106fe565b6040516101b991906107fd565b60405180910390f35b3480156101ce57600080fd5b506101d7610722565b6040516101e491906108ad565b60405180910390f35b7f000000000000000000000000000000000000000000000000000000000000000081565b7f000000000000000000000000000000000000000000000000000000000000000081565b60007f0000000000000000000000000000000000000000000000000000000000000000421015610287577f00000000000000000000000000000000000000000000000000000000000000009050610385565b6103826103536102c07f00000000000000000000000000000000000000000000000000000000000000004261074690919063ffffffff16565b6103456103167f00000000000000000000000000000000000000000000000000000000000000007f000000000000000000000000000000000000000000000000000000000000000061074690919063ffffffff16565b7f000000000000000000000000000000000000000000000000000000000000000061075c90919063ffffffff16565b61077290919063ffffffff16565b7f000000000000000000000000000000000000000000000000000000000000000061074690919063ffffffff16565b90505b90565b6000151560008054906101000a900460ff161515146103dc576040517f08c379a00000000000000000000000000000000000000000000000000000000081526004016103d390610925565b60405180910390fd5b7f000000000000000000000000000000000000000000000000000000000000000042101561043f576040517f08c379a000000000000000000000000000000000000000000000000000000000815260040161043690610991565b60405180910390fd5b7f000000000000000000000000000000000000000000000000000000000000000042106104a1576040517f08c379a0000000000000000000000000000000000000000000000000000000008152600401610498906109fd565b60405180910390fd5b60006104ab610235565b9050803410156104f0576040517f08c379a00000000000000000000000000000000000000000000000000000000081526004016104e790610a8f565b60405180910390fd5b7f000000000000000000000000000000000000000000000000000000000000000073ffffffffffffffffffffffffffffffffffffffff166323b872dd7f0000000000000000000000000000000000000000000000000000000000000000337f00000000000000000000000000000000000000000000000000000000000000006040518463ffffffff1660e01b815260040161058d93929190610af1565b600060405180830381600087803b1580156105a757600080fd5b505af11580156105bb573d6000803e3d6000fd5b50505050600081346105cd9190610b57565b90506000811115610620573373ffffffffffffffffffffffffffffffffffffffff166108fc829081150290604051600060405180830381858888f1935050505015801561061e573d6000803e3d6000fd5b505b7f000000000000000000000000000000000000000000000000000000000000000073ffffffffffffffffffffffffffffffffffffffff166108fc839081150290604051600060405180830381858888f19350505050158015610686573d6000803e3d6000fd5b5060016000806101000a81548160ff0219169083151502179055505050565b60008054906101000a900460ff1681565b7f000000000000000000000000000000000000000000000000000000000000000081565b7f000000000000000000000000000000000000000000000000000000000000000081565b7f000000000000000000000000000000000000000000000000000000000000000081565b7f000000000000000000000000000000000000000000000000000000000000000081565b600081836107549190610b57565b905092915050565b6000818361076a9190610bba565b905092915050565b600081836107809190610beb565b905092915050565b600073ffffffffffffffffffffffffffffffffffffffff82169050919050565b60006107b382610788565b9050919050565b6107c3816107a8565b82525050565b60006020820190506107de60008301846107ba565b92915050565b6000819050919050565b6107f7816107e4565b82525050565b600060208201905061081260008301846107ee565b92915050565b60008115159050919050565b61082d81610818565b82525050565b60006020820190506108486000830184610824565b92915050565b6000819050919050565b600061087361086e61086984610788565b61084e565b610788565b9050919050565b600061088582610858565b9050919050565b60006108978261087a565b9050919050565b6108a78161088c565b82525050565b60006020820190506108c2600083018461089e565b92915050565b600082825260208201905092915050565b7f41756374696f6e206861732066696e6973686564000000000000000000000000600082015250565b600061090f6014836108c8565b915061091a826108d9565b602082019050919050565b6000602082019050818103600083015261093e81610902565b9050919050565b7f41756374696f6e206861736e2774207374617274656420796574000000000000600082015250565b600061097b601a836108c8565b915061098682610945565b602082019050919050565b600060208201905081810360008301526109aa8161096e565b9050919050565b7f41756374696f6e20686173206578706972656400000000000000000000000000600082015250565b60006109e76013836108c8565b91506109f2826109b1565b602082019050919050565b60006020820190508181036000830152610a16816109da565b9050919050565b7f4554482073656e74206973206c6573736572207468616e20746865207072696360008201527f6500000000000000000000000000000000000000000000000000000000000000602082015250565b6000610a796021836108c8565b9150610a8482610a1d565b604082019050919050565b60006020820190508181036000830152610aa881610a6c565b9050919050565b6000610aba8261087a565b9050919050565b610aca81610aaf565b82525050565b6000610adb82610788565b9050919050565b610aeb81610ad0565b82525050565b6000606082019050610b066000830186610ac1565b610b136020830185610ae2565b610b2060408301846107ee565b949350505050565b7f4e487b7100000000000000000000000000000000000000000000000000000000600052601160045260246000fd5b6000610b62826107e4565b9150610b6d836107e4565b925082821015610b8057610b7f610b28565b5b828203905092915050565b7f4e487b7100000000000000000000000000000000000000000000000000000000600052601260045260246000fd5b6000610bc5826107e4565b9150610bd0836107e4565b925082610be057610bdf610b8b565b5b828204905092915050565b6000610bf6826107e4565b9150610c01836107e4565b9250817fffffffffffffffffffffffffffffffffffffffffffffffffffffffffffffffff0483118215151615610c3a57610c39610b28565b5b82820290509291505056fea2646970667358221220f0644fb3d2b8a2e4a934324cf4bf1165ab2384444dc3bc5fb495876b46c6288c64736f6c634300080e0033",
  "linkReferences": {},
  "deployedLinkReferences": {}
}